{
  "_format": "hh-sol-artifact-1",
  "contractName": "AggregatorCore",
  "sourceName": "contracts/AggregatorCore.sol",
  "abi": [
    {
      "inputs": [],
      "stateMutability": "nonpayable",
      "type": "constructor"
    },
    {
      "anonymous": false,
      "inputs": [
        {
          "indexed": true,
          "internalType": "address",
          "name": "newAnchor",
          "type": "address"
        }
      ],
      "name": "AnchorChanged",
      "type": "event"
    },
    {
      "anonymous": false,
      "inputs": [
        {
          "indexed": true,
          "internalType": "uint256",
          "name": "queryId",
          "type": "uint256"
        },
        {
          "indexed": false,
          "internalType": "int256",
          "name": "provisional",
          "type": "int256"
        }
      ],
      "name": "ConsensusUpdated",
      "type": "event"
    },
    {
      "anonymous": false,
      "inputs": [
        {
          "indexed": true,
          "internalType": "uint256",
          "name": "queryId",
          "type": "uint256"
        },
        {
          "indexed": false,
          "internalType": "int256",
          "name": "finalValue",
          "type": "int256"
        }
      ],
      "name": "FinalAnchored",
      "type": "event"
    },
    {
      "anonymous": false,
      "inputs": [
        {
          "indexed": true,
          "internalType": "address",
          "name": "newOwner",
          "type": "address"
        }
      ],
      "name": "OwnerChanged",
      "type": "event"
    },
    {
      "anonymous": false,
      "inputs": [
        {
          "indexed": true,
          "internalType": "uint256",
          "name": "queryId",
          "type": "uint256"
        },
        {
          "indexed": true,
          "internalType": "address",
          "name": "node",
          "type": "address"
        },
        {
          "indexed": false,
          "internalType": "int256",
          "name": "value",
          "type": "int256"
        },
        {
          "indexed": false,
          "internalType": "uint256",
          "name": "confidence",
          "type": "uint256"
        }
      ],
      "name": "PredictionSubmitted",
      "type": "event"
    },
    {
      "anonymous": false,
      "inputs": [
        {
          "indexed": true,
          "internalType": "uint256",
          "name": "queryId",
          "type": "uint256"
        },
        {
          "indexed": false,
          "internalType": "string",
          "name": "description",
          "type": "string"
        },
        {
          "indexed": false,
          "internalType": "enum AggregatorCore.QueryType",
          "name": "qtype",
          "type": "uint8"
        },
        {
          "indexed": false,
          "internalType": "uint256",
          "name": "liveness",
          "type": "uint256"
        }
      ],
      "name": "QueryCreated",
      "type": "event"
    },
    {
      "anonymous": false,
      "inputs": [
        {
          "indexed": true,
          "internalType": "uint256",
          "name": "queryId",
          "type": "uint256"
        }
      ],
      "name": "Settled",
      "type": "event"
    },
    {
      "inputs": [],
      "name": "anchor",
      "outputs": [
        {
          "internalType": "address",
          "name": "",
          "type": "address"
        }
      ],
      "stateMutability": "view",
      "type": "function"
    },
    {
      "inputs": [
        {
          "internalType": "uint256",
          "name": "queryId",
          "type": "uint256"
        },
        {
          "internalType": "int256",
          "name": "finalValue",
          "type": "int256"
        }
      ],
      "name": "anchorFinal",
      "outputs": [],
      "stateMutability": "nonpayable",
      "type": "function"
    },
    {
      "inputs": [
        {
          "internalType": "uint256",
          "name": "queryId",
          "type": "uint256"
        }
      ],
      "name": "canAnchor",
      "outputs": [
        {
          "internalType": "bool",
          "name": "",
          "type": "bool"
        }
      ],
      "stateMutability": "view",
      "type": "function"
    },
    {
      "inputs": [
        {
          "internalType": "string",
          "name": "description",
          "type": "string"
        },
        {
          "internalType": "enum AggregatorCore.QueryType",
          "name": "qtype",
          "type": "uint8"
        },
        {
          "internalType": "uint256",
          "name": "liveness",
          "type": "uint256"
        }
      ],
      "name": "createQuery",
      "outputs": [
        {
          "internalType": "uint256",
          "name": "",
          "type": "uint256"
        }
      ],
      "stateMutability": "nonpayable",
      "type": "function"
    },
    {
      "inputs": [
        {
          "internalType": "uint256",
          "name": "queryId",
          "type": "uint256"
        }
      ],
      "name": "getPredictions",
      "outputs": [
        {
          "components": [
            {
              "internalType": "address",
              "name": "node",
              "type": "address"
            },
            {
              "internalType": "int256",
              "name": "value",
              "type": "int256"
            },
            {
              "internalType": "uint256",
              "name": "confidence",
              "type": "uint256"
            }
          ],
          "internalType": "struct AggregatorCore.Prediction[]",
          "name": "",
          "type": "tuple[]"
        }
      ],
      "stateMutability": "view",
      "type": "function"
    },
    {
      "inputs": [],
      "name": "nextQueryId",
      "outputs": [
        {
          "internalType": "uint256",
          "name": "",
          "type": "uint256"
        }
      ],
      "stateMutability": "view",
      "type": "function"
    },
    {
      "inputs": [],
      "name": "owner",
      "outputs": [
        {
          "internalType": "address",
          "name": "",
          "type": "address"
        }
      ],
      "stateMutability": "view",
      "type": "function"
    },
    {
      "inputs": [
        {
          "internalType": "uint256",
          "name": "",
          "type": "uint256"
        }
      ],
      "name": "queries",
      "outputs": [
        {
          "internalType": "uint256",
          "name": "id",
          "type": "uint256"
        },
        {
          "internalType": "string",
          "name": "description",
          "type": "string"
        },
        {
          "internalType": "enum AggregatorCore.QueryType",
          "name": "qtype",
          "type": "uint8"
        },
        {
          "internalType": "uint256",
          "name": "createdAt",
          "type": "uint256"
        },
        {
          "internalType": "uint256",
          "name": "liveness",
          "type": "uint256"
        },
        {
          "internalType": "enum AggregatorCore.QueryStatus",
          "name": "status",
          "type": "uint8"
        },
        {
          "internalType": "int256",
          "name": "provisional",
          "type": "int256"
        },
        {
          "internalType": "bool",
          "name": "hasConsensus",
          "type": "bool"
        },
        {
          "internalType": "int256",
          "name": "finalValue",
          "type": "int256"
        }
      ],
      "stateMutability": "view",
      "type": "function"
    },
    {
      "inputs": [
        {
          "internalType": "address",
          "name": "",
          "type": "address"
        }
      ],
      "name": "reputation",
      "outputs": [
        {
          "internalType": "uint256",
          "name": "",
          "type": "uint256"
        }
      ],
      "stateMutability": "view",
      "type": "function"
    },
    {
      "inputs": [
        {
          "internalType": "address",
          "name": "_anchor",
          "type": "address"
        }
      ],
      "name": "setAnchor",
      "outputs": [],
      "stateMutability": "nonpayable",
      "type": "function"
    },
    {
      "inputs": [
        {
          "internalType": "uint256",
          "name": "queryId",
          "type": "uint256"
        }
      ],
      "name": "settle",
      "outputs": [],
      "stateMutability": "nonpayable",
      "type": "function"
    },
    {
      "inputs": [
        {
          "internalType": "uint256",
          "name": "queryId",
          "type": "uint256"
        },
        {
          "internalType": "int256",
          "name": "value",
          "type": "int256"
        },
        {
          "internalType": "uint256",
          "name": "confidence",
          "type": "uint256"
        }
      ],
      "name": "submitPrediction",
      "outputs": [],
      "stateMutability": "nonpayable",
      "type": "function"
    }
  ],
  "bytecode": "0x608060405234801561001057600080fd5b50336000806101000a81548173ffffffffffffffffffffffffffffffffffffffff021916908373ffffffffffffffffffffffffffffffffffffffff16021790555060008054906101000a900473ffffffffffffffffffffffffffffffffffffffff1673ffffffffffffffffffffffffffffffffffffffff167fa2ea9883a321a3e97b8266c2b078bfeec6d50c711ed71f874a90d500ae2eaf3660405160405180910390a2612c07806100c36000396000f3fe608060405234801561001057600080fd5b50600436106100b45760003560e01c8063ac92cd2711610071578063ac92cd2714610193578063b9f79451146101c3578063c3e62111146101f3578063c4c4829c1461020f578063d3fb73b41461022d578063f1813d511461024b576100b4565b80633af63008146100b95780638da5cb5b146100d55780638df82800146100f3578063936937fa1461010f578063a7a942911461013f578063ab9c67ad1461015b575b600080fd5b6100d360048036038101906100ce91906119bf565b61027b565b005b6100dd610695565b6040516100ea9190611a53565b60405180910390f35b61010d60048036038101906101089190611a6e565b6106b9565b005b61012960048036038101906101249190611a6e565b610e53565b6040516101369190611ab6565b60405180910390f35b61015960048036038101906101549190611ad1565b610ecb565b005b61017560048036038101906101709190611a6e565b611083565b60405161018a99989796959493929190611c7e565b60405180910390f35b6101ad60048036038101906101a89190611d9c565b611180565b6040516101ba9190611e10565b60405180910390f35b6101dd60048036038101906101d89190611e57565b611401565b6040516101ea9190611e10565b60405180910390f35b61020d60048036038101906102089190611e57565b611419565b005b61021761152e565b6040516102249190611e10565b60405180910390f35b610235611534565b6040516102429190611a53565b60405180910390f35b61026560048036038101906102609190611a6e565b61155a565b6040516102729190611fa2565b60405180910390f35b600060036000858152602001908152602001600020905060008160000154036102d9576040517f08c379a00000000000000000000000000000000000000000000000000000000081526004016102d090612010565b60405180910390fd5b600060028111156102ed576102ec611bb0565b5b8160050160009054906101000a900460ff16600281111561031157610310611bb0565b5b14610351576040517f08c379a00000000000000000000000000000000000000000000000000000000081526004016103489061207c565b60405180910390fd5b6005600085815260200190815260200160002060003373ffffffffffffffffffffffffffffffffffffffff1673ffffffffffffffffffffffffffffffffffffffff16815260200190815260200160002060009054906101000a900460ff16156103ef576040517f08c379a00000000000000000000000000000000000000000000000000000000081526004016103e6906120e8565b60405180910390fd5b60008211610432576040517f08c379a000000000000000000000000000000000000000000000000000000000815260040161042990612154565b60405180910390fd5b6000600181111561044657610445611bb0565b5b8160020160009054906101000a900460ff16600181111561046a57610469611bb0565b5b0361050257600083148061047e5750600183145b6104bd576040517f08c379a00000000000000000000000000000000000000000000000000000000081526004016104b4906121c0565b60405180910390fd5b6064821115610501576040517f08c379a00000000000000000000000000000000000000000000000000000000081526004016104f89061222c565b60405180910390fd5b5b6004600085815260200190815260200160002060405180606001604052803373ffffffffffffffffffffffffffffffffffffffff16815260200185815260200184815250908060018154018082558091505060019003906000526020600020906003020160009091909190915060008201518160000160006101000a81548173ffffffffffffffffffffffffffffffffffffffff021916908373ffffffffffffffffffffffffffffffffffffffff1602179055506020820151816001015560408201518160020155505060016005600086815260200190815260200160002060003373ffffffffffffffffffffffffffffffffffffffff1673ffffffffffffffffffffffffffffffffffffffff16815260200190815260200160002060006101000a81548160ff0219169083151502179055503373ffffffffffffffffffffffffffffffffffffffff16847f34a01afd3f93b2cf0e0a94573e0247807541818fa46c7d6567b7af882e8dae13858560405161067e92919061224c565b60405180910390a361068f84611636565b50505050565b60008054906101000a900473ffffffffffffffffffffffffffffffffffffffff1681565b60008054906101000a900473ffffffffffffffffffffffffffffffffffffffff1673ffffffffffffffffffffffffffffffffffffffff163373ffffffffffffffffffffffffffffffffffffffff1614610747576040517f08c379a000000000000000000000000000000000000000000000000000000000815260040161073e906122c1565b60405180910390fd5b60006003600083815260200190815260200160002090506001600281111561077257610771611bb0565b5b8160050160009054906101000a900460ff16600281111561079657610795611bb0565b5b146107d6576040517f08c379a00000000000000000000000000000000000000000000000000000000081526004016107cd9061232d565b60405180910390fd5b600060046000848152602001908152602001600020905060005b8180549050811015610df357600083600801548383815481106108165761081561234d565b5b90600052602060002090600302016001015461083291906123ab565b905060008082121561084d5781610848906123ee565b61084f565b815b90506000600181111561086557610864611bb0565b5b8560020160009054906101000a900460ff16600181111561088957610888611bb0565b5b03610acc5760008103610965578383815481106108a9576108a861234d565b5b906000526020600020906003020160020154600a6108c79190612436565b600660008686815481106108de576108dd61234d565b5b906000526020600020906003020160000160009054906101000a900473ffffffffffffffffffffffffffffffffffffffff1673ffffffffffffffffffffffffffffffffffffffff1673ffffffffffffffffffffffffffffffffffffffff16815260200190815260200160002060008282546109599190612478565b92505081905550610ac7565b6000600585858154811061097c5761097b61234d565b5b9060005260206000209060030201600201546109989190612436565b90506000600660008787815481106109b3576109b261234d565b5b906000526020600020906003020160000160009054906101000a900473ffffffffffffffffffffffffffffffffffffffff1673ffffffffffffffffffffffffffffffffffffffff1673ffffffffffffffffffffffffffffffffffffffff168152602001908152602001600020549050818111610a30576000610a3d565b8181610a3c91906124ac565b5b60066000888881548110610a5457610a5361234d565b5b906000526020600020906003020160000160009054906101000a900473ffffffffffffffffffffffffffffffffffffffff1673ffffffffffffffffffffffffffffffffffffffff1673ffffffffffffffffffffffffffffffffffffffff1681526020019081526020016000208190555050505b610dde565b60018113610ba357838381548110610ae757610ae661234d565b5b906000526020600020906003020160020154600f610b059190612436565b60066000868681548110610b1c57610b1b61234d565b5b906000526020600020906003020160000160009054906101000a900473ffffffffffffffffffffffffffffffffffffffff1673ffffffffffffffffffffffffffffffffffffffff1673ffffffffffffffffffffffffffffffffffffffff1681526020019081526020016000206000828254610b979190612478565b92505081905550610ddd565b60058113610c7a57838381548110610bbe57610bbd61234d565b5b9060005260206000209060030201600201546008610bdc9190612436565b60066000868681548110610bf357610bf261234d565b5b906000526020600020906003020160000160009054906101000a900473ffffffffffffffffffffffffffffffffffffffff1673ffffffffffffffffffffffffffffffffffffffff1673ffffffffffffffffffffffffffffffffffffffff1681526020019081526020016000206000828254610c6e9190612478565b92505081905550610ddc565b60006004858581548110610c9157610c9061234d565b5b906000526020600020906003020160020154610cad9190612436565b9050600060066000878781548110610cc857610cc761234d565b5b906000526020600020906003020160000160009054906101000a900473ffffffffffffffffffffffffffffffffffffffff1673ffffffffffffffffffffffffffffffffffffffff1673ffffffffffffffffffffffffffffffffffffffff168152602001908152602001600020549050818111610d45576000610d52565b8181610d5191906124ac565b5b60066000888881548110610d6957610d6861234d565b5b906000526020600020906003020160000160009054906101000a900473ffffffffffffffffffffffffffffffffffffffff1673ffffffffffffffffffffffffffffffffffffffff1673ffffffffffffffffffffffffffffffffffffffff1681526020019081526020016000208190555050505b5b5b50508080610deb906124e0565b9150506107f0565b5060028260050160006101000a81548160ff02191690836002811115610e1c57610e1b611bb0565b5b0217905550827fcc3183593ff0e17b930d6f19f832ddcf865bf7ef55eb16754850c55ac447b2ad60405160405180910390a2505050565b60008060036000848152602001908152602001600020905060006002811115610e7f57610e7e611bb0565b5b8160050160009054906101000a900460ff166002811115610ea357610ea2611bb0565b5b148015610ec3575080600401548160030154610ebf9190612478565b4210155b915050919050565b60008054906101000a900473ffffffffffffffffffffffffffffffffffffffff1673ffffffffffffffffffffffffffffffffffffffff163373ffffffffffffffffffffffffffffffffffffffff161480610f725750600160009054906101000a900473ffffffffffffffffffffffffffffffffffffffff1673ffffffffffffffffffffffffffffffffffffffff163373ffffffffffffffffffffffffffffffffffffffff16145b610fb1576040517f08c379a0000000000000000000000000000000000000000000000000000000008152600401610fa890612574565b60405180910390fd5b610fba82610e53565b610ff9576040517f08c379a0000000000000000000000000000000000000000000000000000000008152600401610ff0906125e0565b60405180910390fd5b600060036000848152602001908152602001600020905081816008018190555060018160050160006101000a81548160ff0219169083600281111561104157611040611bb0565b5b0217905550827f5c6829cb25b2b9fb51d07dd4a94c2a27ccafb713dc2b41157e28d90bcac66508836040516110769190612600565b60405180910390a2505050565b60036020528060005260406000206000915090508060000154908060010180546110ac9061264a565b80601f01602080910402602001604051908101604052809291908181526020018280546110d89061264a565b80156111255780601f106110fa57610100808354040283529160200191611125565b820191906000526020600020905b81548152906001019060200180831161110857829003601f168201915b5050505050908060020160009054906101000a900460ff16908060030154908060040154908060050160009054906101000a900460ff16908060060154908060070160009054906101000a900460ff16908060080154905089565b60008060009054906101000a900473ffffffffffffffffffffffffffffffffffffffff1673ffffffffffffffffffffffffffffffffffffffff163373ffffffffffffffffffffffffffffffffffffffff1614611211576040517f08c379a0000000000000000000000000000000000000000000000000000000008152600401611208906122c1565b60405180910390fd5b6000600260008154611222906124e0565b919050819055905060405180610120016040528082815260200187878080601f016020809104026020016040519081016040528093929190818152602001838380828437600081840152601f19601f82011690508083019250505050505050815260200185600181111561129957611298611bb0565b5b8152602001428152602001848152602001600060028111156112be576112bd611bb0565b5b81526020016000815260200160001515815260200160008152506003600083815260200190815260200160002060008201518160000155602082015181600101908161130a9190612856565b5060408201518160020160006101000a81548160ff0219169083600181111561133657611335611bb0565b5b0217905550606082015181600301556080820151816004015560a08201518160050160006101000a81548160ff0219169083600281111561137a57611379611bb0565b5b021790555060c0820151816006015560e08201518160070160006101000a81548160ff0219169083151502179055506101008201518160080155905050807fb634c9fb7304b84fd54f048b7f44a9911f69d91ddfde7b5047cc98ea03924973878787876040516113ed9493929190612964565b60405180910390a280915050949350505050565b60066020528060005260406000206000915090505481565b60008054906101000a900473ffffffffffffffffffffffffffffffffffffffff1673ffffffffffffffffffffffffffffffffffffffff163373ffffffffffffffffffffffffffffffffffffffff16146114a7576040517f08c379a000000000000000000000000000000000000000000000000000000000815260040161149e906122c1565b60405180910390fd5b80600160006101000a81548173ffffffffffffffffffffffffffffffffffffffff021916908373ffffffffffffffffffffffffffffffffffffffff1602179055508073ffffffffffffffffffffffffffffffffffffffff167f8620b75ec61575a5d18da36cdbab82f96b7056ee92fd5732e83d31d5f997202760405160405180910390a250565b60025481565b600160009054906101000a900473ffffffffffffffffffffffffffffffffffffffff1681565b606060046000838152602001908152602001600020805480602002602001604051908101604052809291908181526020016000905b8282101561162b57838290600052602060002090600302016040518060600160405290816000820160009054906101000a900473ffffffffffffffffffffffffffffffffffffffff1673ffffffffffffffffffffffffffffffffffffffff1673ffffffffffffffffffffffffffffffffffffffff168152602001600182015481526020016002820154815250508152602001906001019061158f565b505050509050919050565b60006004600083815260200190815260200160002090506000818054905011611694576040517f08c379a000000000000000000000000000000000000000000000000000000000815260040161168b906129f0565b60405180910390fd5b600060036000848152602001908152602001600020905060008060005b84805490508110156117455760008582815481106116d2576116d161234d565b5b906000526020600020906003020160020154905080846116f29190612478565b9350808683815481106117085761170761234d565b5b9060005260206000209060030201600101546117249190612a10565b8361172f9190612a88565b925050808061173d906124e0565b9150506116b1565b5060008211611789576040517f08c379a000000000000000000000000000000000000000000000000000000000815260040161178090612b18565b60405180910390fd5b600082826117979190612b67565b9050600060018111156117ad576117ac611bb0565b5b8460020160009054906101000a900460ff1660018111156117d1576117d0611bb0565b5b036118e3576001811215806117e65750600081135b6117f1576000611805565b6001811215611801576000611804565b60015b5b905060008060005b87805490508110156118bf5787818154811061182c5761182b61234d565b5b9060005260206000209060030201600201548882815481106118515761185061234d565b5b90600052602060002090600302016001015461186d9190612a10565b836118789190612a88565b925087818154811061188d5761188c61234d565b5b906000526020600020906003020160020154826118aa9190612a88565b915080806118b7906124e0565b91505061180d565b50806002836118ce9190612a10565b12156118db5760006118de565b60015b925050505b80846006018190555060018460070160006101000a81548160ff021916908315150217905550857f24a6a20269757d6c64d89116e5f49be13667cfd69d4242336f95d8afc82ea81a826040516119399190612600565b60405180910390a2505050505050565b600080fd5b600080fd5b6000819050919050565b61196681611953565b811461197157600080fd5b50565b6000813590506119838161195d565b92915050565b6000819050919050565b61199c81611989565b81146119a757600080fd5b50565b6000813590506119b981611993565b92915050565b6000806000606084860312156119d8576119d7611949565b5b60006119e686828701611974565b93505060206119f7868287016119aa565b9250506040611a0886828701611974565b9150509250925092565b600073ffffffffffffffffffffffffffffffffffffffff82169050919050565b6000611a3d82611a12565b9050919050565b611a4d81611a32565b82525050565b6000602082019050611a686000830184611a44565b92915050565b600060208284031215611a8457611a83611949565b5b6000611a9284828501611974565b91505092915050565b60008115159050919050565b611ab081611a9b565b82525050565b6000602082019050611acb6000830184611aa7565b92915050565b60008060408385031215611ae857611ae7611949565b5b6000611af685828601611974565b9250506020611b07858286016119aa565b9150509250929050565b611b1a81611953565b82525050565b600081519050919050565b600082825260208201905092915050565b60005b83811015611b5a578082015181840152602081019050611b3f565b60008484015250505050565b6000601f19601f8301169050919050565b6000611b8282611b20565b611b8c8185611b2b565b9350611b9c818560208601611b3c565b611ba581611b66565b840191505092915050565b7f4e487b7100000000000000000000000000000000000000000000000000000000600052602160045260246000fd5b60028110611bf057611bef611bb0565b5b50565b6000819050611c0182611bdf565b919050565b6000611c1182611bf3565b9050919050565b611c2181611c06565b82525050565b60038110611c3857611c37611bb0565b5b50565b6000819050611c4982611c27565b919050565b6000611c5982611c3b565b9050919050565b611c6981611c4e565b82525050565b611c7881611989565b82525050565b600061012082019050611c94600083018c611b11565b8181036020830152611ca6818b611b77565b9050611cb5604083018a611c18565b611cc26060830189611b11565b611ccf6080830188611b11565b611cdc60a0830187611c60565b611ce960c0830186611c6f565b611cf660e0830185611aa7565b611d04610100830184611c6f565b9a9950505050505050505050565b600080fd5b600080fd5b600080fd5b60008083601f840112611d3757611d36611d12565b5b8235905067ffffffffffffffff811115611d5457611d53611d17565b5b602083019150836001820283011115611d7057611d6f611d1c565b5b9250929050565b60028110611d8457600080fd5b50565b600081359050611d9681611d77565b92915050565b60008060008060608587031215611db657611db5611949565b5b600085013567ffffffffffffffff811115611dd457611dd361194e565b5b611de087828801611d21565b94509450506020611df387828801611d87565b9250506040611e0487828801611974565b91505092959194509250565b6000602082019050611e256000830184611b11565b92915050565b611e3481611a32565b8114611e3f57600080fd5b50565b600081359050611e5181611e2b565b92915050565b600060208284031215611e6d57611e6c611949565b5b6000611e7b84828501611e42565b91505092915050565b600081519050919050565b600082825260208201905092915050565b6000819050602082019050919050565b611eb981611a32565b82525050565b611ec881611989565b82525050565b611ed781611953565b82525050565b606082016000820151611ef36000850182611eb0565b506020820151611f066020850182611ebf565b506040820151611f196040850182611ece565b50505050565b6000611f2b8383611edd565b60608301905092915050565b6000602082019050919050565b6000611f4f82611e84565b611f598185611e8f565b9350611f6483611ea0565b8060005b83811015611f95578151611f7c8882611f1f565b9750611f8783611f37565b925050600181019050611f68565b5085935050505092915050565b60006020820190508181036000830152611fbc8184611f44565b905092915050565b7f51554552595f4e4f545f464f554e440000000000000000000000000000000000600082015250565b6000611ffa600f83611b2b565b915061200582611fc4565b602082019050919050565b6000602082019050818103600083015261202981611fed565b9050919050565b7f51554552595f4e4f545f41435449564500000000000000000000000000000000600082015250565b6000612066601083611b2b565b915061207182612030565b602082019050919050565b6000602082019050818103600083015261209581612059565b9050919050565b7f414c52454144595f5355424d4954544544000000000000000000000000000000600082015250565b60006120d2601183611b2b565b91506120dd8261209c565b602082019050919050565b60006020820190508181036000830152612101816120c5565b9050919050565b7f434f4e464944454e43455f5a45524f0000000000000000000000000000000000600082015250565b600061213e600f83611b2b565b915061214982612108565b602082019050919050565b6000602082019050818103600083015261216d81612131565b9050919050565b7f42494e4152595f56414c55455f494e56414c4944000000000000000000000000600082015250565b60006121aa601483611b2b565b91506121b582612174565b602082019050919050565b600060208201905081810360008301526121d98161219d565b9050919050565b7f434f4e464944454e43455f544f4f5f4849474800000000000000000000000000600082015250565b6000612216601383611b2b565b9150612221826121e0565b602082019050919050565b6000602082019050818103600083015261224581612209565b9050919050565b60006040820190506122616000830185611c6f565b61226e6020830184611b11565b9392505050565b7f4e4f545f4f574e45520000000000000000000000000000000000000000000000600082015250565b60006122ab600983611b2b565b91506122b682612275565b602082019050919050565b600060208201905081810360008301526122da8161229e565b9050919050565b7f4e4f545f414e43484f5245440000000000000000000000000000000000000000600082015250565b6000612317600c83611b2b565b9150612322826122e1565b602082019050919050565b600060208201905081810360008301526123468161230a565b9050919050565b7f4e487b7100000000000000000000000000000000000000000000000000000000600052603260045260246000fd5b7f4e487b7100000000000000000000000000000000000000000000000000000000600052601160045260246000fd5b60006123b682611989565b91506123c183611989565b92508282039050818112600084121682821360008512151617156123e8576123e761237c565b5b92915050565b60006123f982611989565b91507f8000000000000000000000000000000000000000000000000000000000000000820361242b5761242a61237c565b5b816000039050919050565b600061244182611953565b915061244c83611953565b925082820261245a81611953565b915082820484148315176124715761247061237c565b5b5092915050565b600061248382611953565b915061248e83611953565b92508282019050808211156124a6576124a561237c565b5b92915050565b60006124b782611953565b91506124c283611953565b92508282039050818111156124da576124d961237c565b5b92915050565b60006124eb82611953565b91507fffffffffffffffffffffffffffffffffffffffffffffffffffffffffffffffff820361251d5761251c61237c565b5b600182019050919050565b7f4e4f545f414e43484f5200000000000000000000000000000000000000000000600082015250565b600061255e600a83611b2b565b915061256982612528565b602082019050919050565b6000602082019050818103600083015261258d81612551565b9050919050565b7f4e4f545f52454144595f544f5f414e43484f5200000000000000000000000000600082015250565b60006125ca601383611b2b565b91506125d582612594565b602082019050919050565b600060208201905081810360008301526125f9816125bd565b9050919050565b60006020820190506126156000830184611c6f565b92915050565b7f4e487b7100000000000000000000000000000000000000000000000000000000600052602260045260246000fd5b6000600282049050600182168061266257607f821691505b6020821081036126755761267461261b565b5b50919050565b7f4e487b7100000000000000000000000000000000000000000000000000000000600052604160045260246000fd5b60008190508160005260206000209050919050565b60006020601f8301049050919050565b600082821b905092915050565b60006008830261270c7fffffffffffffffffffffffffffffffffffffffffffffffffffffffffffffffff826126cf565b61271686836126cf565b95508019841693508086168417925050509392505050565b6000819050919050565b600061275361274e61274984611953565b61272e565b611953565b9050919050565b6000819050919050565b61276d83612738565b6127816127798261275a565b8484546126dc565b825550505050565b600090565b612796612789565b6127a1818484612764565b505050565b5b818110156127c5576127ba60008261278e565b6001810190506127a7565b5050565b601f82111561280a576127db816126aa565b6127e4846126bf565b810160208510156127f3578190505b6128076127ff856126bf565b8301826127a6565b50505b505050565b600082821c905092915050565b600061282d6000198460080261280f565b1980831691505092915050565b6000612846838361281c565b9150826002028217905092915050565b61285f82611b20565b67ffffffffffffffff8111156128785761287761267b565b5b612882825461264a565b61288d8282856127c9565b600060209050601f8311600181146128c057600084156128ae578287015190505b6128b8858261283a565b865550612920565b601f1984166128ce866126aa565b60005b828110156128f6578489015182556001820191506020850194506020810190506128d1565b86831015612913578489015161290f601f89168261281c565b8355505b6001600288020188555050505b505050505050565b82818337600083830152505050565b60006129438385611b2b565b9350612950838584612928565b61295983611b66565b840190509392505050565b6000606082019050818103600083015261297f818688612937565b905061298e6020830185611c18565b61299b6040830184611b11565b95945050505050565b7f4e4f5f50524544494354494f4e53000000000000000000000000000000000000600082015250565b60006129da600e83611b2b565b91506129e5826129a4565b602082019050919050565b60006020820190508181036000830152612a09816129cd565b9050919050565b6000612a1b82611989565b9150612a2683611989565b9250828202612a3481611989565b91507f80000000000000000000000000000000000000000000000000000000000000008414600084121615612a6c57612a6b61237c565b5b8282058414831517612a8157612a8061237c565b5b5092915050565b6000612a9382611989565b9150612a9e83611989565b925082820190508281121560008312168382126000841215161715612ac657612ac561237c565b5b92915050565b7f5a45524f5f544f54414c5f574549474854000000000000000000000000000000600082015250565b6000612b02601183611b2b565b9150612b0d82612acc565b602082019050919050565b60006020820190508181036000830152612b3181612af5565b9050919050565b7f4e487b7100000000000000000000000000000000000000000000000000000000600052601260045260246000fd5b6000612b7282611989565b9150612b7d83611989565b925082612b8d57612b8c612b38565b5b600160000383147f800000000000000000000000000000000000000000000000000000000000000083141615612bc657612bc561237c565b5b82820590509291505056fea2646970667358221220a03feff824117758e4696ad07b63391b9ebda2f53be00382657e0f89ee83a1df64736f6c63430008140033",
  "linkReferences": {},
  "deployedLinkReferences": {}
}